{
  "_format": "hh3-artifact-1",
  "contractName": "Donasi",
  "sourceName": "contracts/Donasi.sol",
  "abi": [
    {
      "inputs": [],
      "stateMutability": "nonpayable",
      "type": "constructor"
    },
    {
      "inputs": [],
      "name": "GagalTransfer",
      "type": "error"
    },
    {
      "inputs": [],
      "name": "HanyaOwner",
      "type": "error"
    },
    {
      "inputs": [],
      "name": "NominalNol",
      "type": "error"
    },
    {
      "inputs": [],
      "name": "SaldoKosong",
      "type": "error"
    },
    {
      "anonymous": false,
      "inputs": [
        {
          "indexed": false,
          "internalType": "uint256",
          "name": "jumlah",
          "type": "uint256"
        }
      ],
      "name": "Donasiditarik",
      "type": "event"
    },
    {
      "anonymous": false,
      "inputs": [
        {
          "indexed": true,
          "internalType": "address",
          "name": "pengirim",
          "type": "address"
        },
        {
          "indexed": false,
          "internalType": "uint256",
          "name": "jumlah",
          "type": "uint256"
        }
      ],
      "name": "Donasiditerima",
      "type": "event"
    },
    {
      "inputs": [],
      "name": "donasi",
      "outputs": [],
      "stateMutability": "payable",
      "type": "function"
    },
    {
      "inputs": [
        {
          "internalType": "address",
          "name": "",
          "type": "address"
        }
      ],
      "name": "donatur",
      "outputs": [
        {
          "internalType": "uint256",
          "name": "",
          "type": "uint256"
        }
      ],
      "stateMutability": "view",
      "type": "function"
    },
    {
      "inputs": [],
      "name": "getBalance",
      "outputs": [
        {
          "internalType": "uint256",
          "name": "",
          "type": "uint256"
        }
      ],
      "stateMutability": "view",
      "type": "function"
    },
    {
      "inputs": [],
      "name": "owner",
      "outputs": [
        {
          "internalType": "address",
          "name": "",
          "type": "address"
        }
      ],
      "stateMutability": "view",
      "type": "function"
    },
    {
      "inputs": [],
      "name": "tarikDonasi",
      "outputs": [],
      "stateMutability": "nonpayable",
      "type": "function"
    },
    {
      "inputs": [],
      "name": "tototalDonasi",
      "outputs": [
        {
          "internalType": "uint256",
          "name": "",
          "type": "uint256"
        }
      ],
      "stateMutability": "view",
      "type": "function"
    }
  ],
  "bytecode": "0x6080604052348015600e575f5ffd5b505f80546001600160a01b0319163317905561035a8061002d5f395ff3fe608060405260043610610054575f3560e01c806312065fe01461005857806312eaa4fa1461007957806374ad0beb1461008e5780638da5cb5b146100a4578063b3c5a169146100da578063d99d831314610105575b5f5ffd5b348015610063575f5ffd5b50475b6040519081526020015b60405180910390f35b348015610084575f5ffd5b5061006660015481565b348015610099575f5ffd5b506100a261010d565b005b3480156100af575f5ffd5b505f546100c2906001600160a01b031681565b6040516001600160a01b039091168152602001610070565b3480156100e5575f5ffd5b506100666100f43660046102d2565b60026020525f908152604090205481565b6100a2610240565b5f546001600160a01b031633146101765760405162461bcd60e51b8152602060048201526024808201527f48616e7961206f776e65722079616e672062697361206d656e6172696b20646f6044820152636e61736960e01b606482015260840160405180910390fd5b475f8190036101985760405163b00fc60d60e01b815260040160405180910390fd5b5f80546040516001600160a01b039091169083908381818185875af1925050503d805f81146101e2576040519150601f19603f3d011682016040523d82523d5f602084013e6101e7565b606091505b50509050806102095760405163ac6ff62f60e01b815260040160405180910390fd5b6040518281527fbe73a8e697839b2280e9b43ae71f4646ed7f1513d769eda1e5e08cbc9f45ba3f9060200160405180910390a15050565b345f036102605760405163eb3ae44d60e01b815260040160405180910390fd5b335f908152600260205260408120805434929061027e9084906102ff565b925050819055503460015f82825461029691906102ff565b909155505060405134815233907f1c68742d566e8f3a3bfe9f4dd424a728f630acc68c2d391f5cdb3217144a66fa9060200160405180910390a2565b5f602082840312156102e2575f5ffd5b81356001600160a01b03811681146102f8575f5ffd5b9392505050565b8082018082111561031e57634e487b7160e01b5f52601160045260245ffd5b9291505056fea26469706673582212205f6098c463e7f68cbb92b993ffbe77925ce7a49ab5be1f5455710e49efe8e5ee64736f6c634300081c0033",
  "linkReferences": {},
  "deployedLinkReferences": {},
  "immutableReferences": {},
  "inputSourceName": "project/contracts/Donasi.sol",
  "buildInfoId": "solc-0_8_28-432f93e8cdd447d932451889c59ac7d4a4ec7c0d"
}